{
  "contractName": "HarvestContract",
  "abi": [
    {
      "constant": true,
      "inputs": [],
      "name": "petersonEOA",
      "outputs": [
        {
          "name": "",
          "type": "address"
        }
      ],
      "payable": false,
      "stateMutability": "view",
      "type": "function",
      "signature": "0x948ac053"
    },
    {
      "inputs": [
        {
          "name": "peterson",
          "type": "address"
        }
      ],
      "payable": false,
      "stateMutability": "nonpayable",
      "type": "constructor",
      "signature": "constructor"
    },
    {
      "constant": false,
      "inputs": [
        {
          "components": [
            {
              "name": "id",
              "type": "uint256"
            },
            {
              "components": [
                {
                  "name": "longitude",
                  "type": "uint256"
                },
                {
                  "name": "latitude",
                  "type": "uint256"
                }
              ],
              "name": "northEast",
              "type": "tuple"
            },
            {
              "components": [
                {
                  "name": "longitude",
                  "type": "uint256"
                },
                {
                  "name": "latitude",
                  "type": "uint256"
                }
              ],
              "name": "southWest",
              "type": "tuple"
            }
          ],
          "name": "field",
          "type": "tuple"
        }
      ],
      "name": "registerField",
      "outputs": [],
      "payable": true,
      "stateMutability": "payable",
      "type": "function",
      "signature": "0x9e4126dd"
    },
    {
      "constant": false,
      "inputs": [
        {
          "components": [
            {
              "name": "id",
              "type": "uint256"
            },
            {
              "name": "addr",
              "type": "address"
            }
          ],
          "name": "truck",
          "type": "tuple"
        }
      ],
      "name": "registerTruck",
      "outputs": [],
      "payable": true,
      "stateMutability": "payable",
      "type": "function",
      "signature": "0xa9beab0f"
    },
    {
      "constant": false,
      "inputs": [
        {
          "components": [
            {
              "components": [
                {
                  "name": "longitude",
                  "type": "uint256"
                },
                {
                  "name": "latitude",
                  "type": "uint256"
                }
              ],
              "name": "position",
              "type": "tuple"
            },
            {
              "name": "time",
              "type": "string"
            },
            {
              "name": "volume",
              "type": "uint256"
            },
            {
              "name": "bio",
              "type": "bool"
            }
          ],
          "name": "data",
          "type": "tuple"
        },
        {
          "name": "id",
          "type": "uint256"
        }
      ],
      "name": "storeHarvestData",
      "outputs": [],
      "payable": true,
      "stateMutability": "payable",
      "type": "function",
      "signature": "0x6fcd46c6"
    },
    {
      "constant": true,
      "inputs": [
        {
          "name": "truckID",
          "type": "uint256"
        }
      ],
      "name": "getLoadedTruckData",
      "outputs": [
        {
          "components": [
            {
              "components": [
                {
                  "name": "longitude",
                  "type": "uint256"
                },
                {
                  "name": "latitude",
                  "type": "uint256"
                }
              ],
              "name": "position",
              "type": "tuple"
            },
            {
              "name": "time",
              "type": "string"
            },
            {
              "name": "volume",
              "type": "uint256"
            },
            {
              "name": "bio",
              "type": "bool"
            }
          ],
          "name": "",
          "type": "tuple"
        }
      ],
      "payable": false,
      "stateMutability": "view",
      "type": "function",
      "signature": "0xd36e08f1"
    },
    {
      "constant": false,
      "inputs": [
        {
          "name": "truckID",
          "type": "uint256"
        }
      ],
      "name": "unloadTruck",
      "outputs": [],
      "payable": true,
      "stateMutability": "payable",
      "type": "function",
      "signature": "0x8092eaef"
    },
    {
      "constant": true,
      "inputs": [
        {
          "components": [
            {
              "name": "longitude",
              "type": "uint256"
            },
            {
              "name": "latitude",
              "type": "uint256"
            }
          ],
          "name": "pos",
          "type": "tuple"
        }
      ],
      "name": "positionToField",
      "outputs": [
        {
          "name": "fieldID",
          "type": "uint256"
        }
      ],
      "payable": false,
      "stateMutability": "view",
      "type": "function",
      "signature": "0xcf6a96ef"
    }
  ],
  "bytecode": "0x6080604052600060045534801561001557600080fd5b50604051602080610faf8339810180604052610034919081019061008e565b806000806101000a81548173ffffffffffffffffffffffffffffffffffffffff021916908373ffffffffffffffffffffffffffffffffffffffff160217905550506100e9565b600061008682516100d7565b905092915050565b6000602082840312156100a057600080fd5b60006100ae8482850161007a565b91505092915050565b600073ffffffffffffffffffffffffffffffffffffffff82169050919050565b60006100e2826100b7565b9050919050565b610eb7806100f86000396000f3fe608060405260043610610083576000357c0100000000000000000000000000000000000000000000000000000000900463ffffffff1680636fcd46c6146100885780638092eaef146100a4578063948ac053146100c05780639e4126dd146100eb578063a9beab0f14610107578063cf6a96ef14610123578063d36e08f114610160575b600080fd5b6100a2600480360361009d9190810190610b63565b61019d565b005b6100be60048036036100b99190810190610be0565b6102d1565b005b3480156100cc57600080fd5b506100d561039c565b6040516100e29190610cfe565b60405180910390f35b61010560048036036101009190810190610b3a565b6103c1565b005b610121600480360361011c9190810190610b11565b610498565b005b34801561012f57600080fd5b5061014a60048036036101459190810190610bb7565b610578565b6040516101579190610d3b565b60405180910390f35b34801561016c57600080fd5b5061018760048036036101829190810190610be0565b6106a2565b6040516101949190610d19565b60405180910390f35b600080905060008090505b60038054905081101561023b576003818154811015156101c457fe5b906000526020600020906002020160010160009054906101000a900473ffffffffffffffffffffffffffffffffffffffff1673ffffffffffffffffffffffffffffffffffffffff163373ffffffffffffffffffffffffffffffffffffffff16141561022e57600191505b80806001019150506101a8565b506001151581151514151561024f57600080fd5b826001600084815260200190815260200160002060008201518160000160008201518160000155602082015181600101555050602082015181600201908051906020019061029e9291906107bf565b506040820151816003015560608201518160040160006101000a81548160ff021916908315150217905550905050505050565b608060405190810160405280604080519081016040528060008152602001600081525081526020016020604051908101604052806000815250815260200160008152602001600015158152506001600083815260200190815260200160002060008201518160000160008201518160000155602082015181600101555050602082015181600201908051906020019061036b9291906107bf565b506040820151816003015560608201518160040160006101000a81548160ff02191690831515021790555090505050565b6000809054906101000a900473ffffffffffffffffffffffffffffffffffffffff1681565b6000809054906101000a900473ffffffffffffffffffffffffffffffffffffffff1673ffffffffffffffffffffffffffffffffffffffff163373ffffffffffffffffffffffffffffffffffffffff1614151561041c57600080fd5b6002819080600181540180825580915050906001820390600052602060002090600502016000909192909190915060008201518160000155602082015181600101600082015181600001556020820151816001015550506040820151816003016000820151816000015560208201518160010155505050505050565b6000809054906101000a900473ffffffffffffffffffffffffffffffffffffffff1673ffffffffffffffffffffffffffffffffffffffff163373ffffffffffffffffffffffffffffffffffffffff161415156104f357600080fd5b600381908060018154018082558091505090600182039060005260206000209060020201600090919290919091506000820151816000015560208201518160010160006101000a81548173ffffffffffffffffffffffffffffffffffffffff021916908373ffffffffffffffffffffffffffffffffffffffff16021790555050505050565b600080600090505b60028054905081101561069657600060028281548110151561059e57fe5b90600052602060002090600502016001016000015484600001511080156105eb57506002828154811015156105cf57fe5b9060005260206000209060050201600301600001548460000151115b905060006002838154811015156105fe57fe5b906000526020600020906005020160010160010154856020015110801561064b575060028381548110151561062f57fe5b9060005260206000209060050201600301600101548560200151115b90508180156106575750805b156106875760028381548110151561066b57fe5b906000526020600020906005020160000154935050505061069d565b50508080600101915050610580565b5060045490505b919050565b6106aa61083f565b600160008381526020019081526020016000206080604051908101604052908160008201604080519081016040529081600082015481526020016001820154815250508152602001600282018054600181600116156101000203166002900480601f01602080910402602001604051908101604052809291908181526020018280546001816001161561010002031660029004801561078a5780601f1061075f5761010080835404028352916020019161078a565b820191906000526020600020905b81548152906001019060200180831161076d57829003601f168201915b50505050508152602001600382015481526020016004820160009054906101000a900460ff1615151515815250509050919050565b828054600181600116156101000203166002900490600052602060002090601f016020900481019282601f1061080057805160ff191683800117855561082e565b8280016001018555821561082e579182015b8281111561082d578251825591602001919060010190610812565b5b50905061083b9190610870565b5090565b60a060405190810160405280610853610895565b815260200160608152602001600081526020016000151581525090565b61089291905b8082111561088e576000816000905550600101610876565b5090565b90565b604080519081016040528060008152602001600081525090565b60006108bb8235610e02565b905092915050565b60006108cf8235610e14565b905092915050565b600082601f83011215156108ea57600080fd5b81356108fd6108f882610d83565b610d56565b9150808252602083016020830185838301111561091957600080fd5b610924838284610e2a565b50505092915050565b60006040828403121561093f57600080fd5b6109496040610d56565b9050600061095984828501610afd565b600083015250602061096d848285016108af565b60208301525092915050565b600060a0828403121561098b57600080fd5b6109956060610d56565b905060006109a584828501610afd565b60008301525060206109b984828501610a65565b60208301525060606109cd84828501610a65565b60408301525092915050565b600060a082840312156109eb57600080fd5b6109f56080610d56565b90506000610a0584828501610a65565b600083015250604082013567ffffffffffffffff811115610a2557600080fd5b610a31848285016108d7565b6020830152506060610a4584828501610afd565b6040830152506080610a59848285016108c3565b60608301525092915050565b600060408284031215610a7757600080fd5b610a816040610d56565b90506000610a9184828501610afd565b6000830152506020610aa584828501610afd565b60208301525092915050565b600060408284031215610ac357600080fd5b610acd6040610d56565b90506000610add84828501610afd565b6000830152506020610af184828501610afd565b60208301525092915050565b6000610b098235610e20565b905092915050565b600060408284031215610b2357600080fd5b6000610b318482850161092d565b91505092915050565b600060a08284031215610b4c57600080fd5b6000610b5a84828501610979565b91505092915050565b60008060408385031215610b7657600080fd5b600083013567ffffffffffffffff811115610b9057600080fd5b610b9c858286016109d9565b9250506020610bad85828601610afd565b9150509250929050565b600060408284031215610bc957600080fd5b6000610bd784828501610ab1565b91505092915050565b600060208284031215610bf257600080fd5b6000610c0084828501610afd565b91505092915050565b610c1281610dba565b82525050565b610c2181610dcc565b82525050565b6000610c3282610daf565b808452610c46816020860160208601610e39565b610c4f81610e6c565b602085010191505092915050565b600060a083016000830151610c756000860182610cc0565b5060208301518482036040860152610c8d8282610c27565b9150506040830151610ca26060860182610cef565b506060830151610cb56080860182610c18565b508091505092915050565b604082016000820151610cd66000850182610cef565b506020820151610ce96020850182610cef565b50505050565b610cf881610df8565b82525050565b6000602082019050610d136000830184610c09565b92915050565b60006020820190508181036000830152610d338184610c5d565b905092915050565b6000602082019050610d506000830184610cef565b92915050565b6000604051905081810181811067ffffffffffffffff82111715610d7957600080fd5b8060405250919050565b600067ffffffffffffffff821115610d9a57600080fd5b601f19601f8301169050602081019050919050565b600081519050919050565b6000610dc582610dd8565b9050919050565b60008115159050919050565b600073ffffffffffffffffffffffffffffffffffffffff82169050919050565b6000819050919050565b6000610e0d82610dd8565b9050919050565b60008115159050919050565b6000819050919050565b82818337600083830152505050565b60005b83811015610e57578082015181840152602081019050610e3c565b83811115610e66576000848401525b50505050565b6000601f19601f830116905091905056fea265627a7a72305820466357562c1d433f3b5748909b09cba2c9972956d4cfdc57ce21818d5ee5dc226c6578706572696d656e74616cf50037",
  "source": "pragma solidity >=0.4.0 <0.6.0;\nimport {SharedStructs as lib} from \"./sharedlibs.sol\";\npragma experimental ABIEncoderV2;\n\ncontract HarvestContract {\n\n    address public petersonEOA;\n    constructor(address peterson) public {\n        petersonEOA = peterson;\n    }\n\n    modifier onlyPeterson() {\n        require(msg.sender==petersonEOA);\n        _;\n    }\n\n    mapping(uint => lib.HarvestData) loadedTrucks;\n    lib.Field[] fields;\n    // every truck registered by Peterson\n    lib.Account[] trucks;\n    uint INVALID_FIELD_ID = 0;\n\n    modifier onlyTruck() {\n        bool isTruck = false;\n        for(uint i = 0; i<trucks.length; i++) {\n            if (msg.sender == trucks[i].addr)\n                isTruck = true;\n        }\n        require(isTruck==true);\n\n        _;\n    }\n\n    // only farmers should be given permission to add fields to blockchain\n    // Field extreme positions coordinates must be converted by a scale factor of 111000\n    function registerField(lib.Field memory field) public payable onlyPeterson  {\n        fields.push(field);\n    }\n\n    function registerTruck(lib.Account memory truck) public payable onlyPeterson {\n        trucks.push(truck);\n    }\n\n    /*function deRegisterTruck(uint truckID) public payable onlyPeterson {\n        for (uint i = 0; i<trucks.length; i++)\n        {\n            if (trucks[i].id == truckID) {\n                delete trucks[i];\n            }\n        }\n    }*/\n\n    // When truck is done loading harvest on the field must upload crop/truck data on blockchain.\n    // Truck position coordinates must be converted by a scale factor of 111000\n    // id must match address of truck, as in trucks[] array (truck program assumed safe)\n    function storeHarvestData(lib.HarvestData memory data, uint id) public payable onlyTruck {\n        loadedTrucks[id] = data;\n    }\n\n    function getLoadedTruckData(uint truckID) public view returns (lib.HarvestData memory) {\n        return loadedTrucks[truckID];\n    }\n\n    function unloadTruck(uint truckID) public payable  {\n        loadedTrucks[truckID] = lib.HarvestData(lib.Position(0, 0), \"\", 0, false);\n    }\n\n    // returns INVALID_FIELD_ID if position is not included in any registered field\n    function positionToField(lib.Position memory pos) public view returns (uint fieldID) {\n        for (uint i = 0; i<fields.length; i++) {\n            // condition is met at least in Ucraine\n            bool longitudeSatisfied = pos.longitude<fields[i].northEast.longitude &&\n                                      pos.longitude>fields[i].southWest.longitude;\n            bool latitudeSatisfied = pos.latitude<fields[i].northEast.latitude &&\n                                      pos.latitude>fields[i].southWest.latitude;\n            if (longitudeSatisfied && latitudeSatisfied) {\n                return fields[i].id;\n            }\n        }\n        return INVALID_FIELD_ID;\n    }\n}\n",
  "sourcePath": "/MetaCoin/contracts/harvest.sol",
  "compiler": {
    "name": "solc",
    "version": "0.5.0+commit.1d4f565a.Emscripten.clang"
  },
  "schemaVersion": "3.0.2",
  "updatedAt": "2019-02-14T17:42:57.328Z",
  "devdoc": {
    "methods": {}
  },
  "userdoc": {
    "methods": {}
  }
}