{
  "contractName": "SharedStructs",
  "abi": [
    {
      "constant": true,
      "inputs": [],
      "name": "WC_ADDR",
      "outputs": [
        {
          "name": "",
          "type": "address"
        }
      ],
      "payable": false,
      "stateMutability": "view",
      "type": "function",
      "signature": "0x048c294e"
    },
    {
      "constant": true,
      "inputs": [],
      "name": "peterson",
      "outputs": [
        {
          "name": "",
          "type": "address"
        }
      ],
      "payable": false,
      "stateMutability": "view",
      "type": "function",
      "signature": "0x55cace6d"
    },
    {
      "constant": true,
      "inputs": [],
      "name": "HC_ADDR",
      "outputs": [
        {
          "name": "",
          "type": "address"
        }
      ],
      "payable": false,
      "stateMutability": "view",
      "type": "function",
      "signature": "0x97170e1d"
    },
    {
      "constant": false,
      "inputs": [],
      "name": "getPeterson",
      "outputs": [
        {
          "name": "",
          "type": "address"
        }
      ],
      "payable": false,
      "stateMutability": "nonpayable",
      "type": "function",
      "signature": "0x92ef4d7c"
    },
    {
      "constant": false,
      "inputs": [],
      "name": "getWC_ADDR",
      "outputs": [
        {
          "name": "",
          "type": "address"
        }
      ],
      "payable": false,
      "stateMutability": "nonpayable",
      "type": "function",
      "signature": "0x9397018f"
    },
    {
      "constant": false,
      "inputs": [],
      "name": "getHC_ADDR",
      "outputs": [
        {
          "name": "",
          "type": "address"
        }
      ],
      "payable": false,
      "stateMutability": "nonpayable",
      "type": "function",
      "signature": "0x1ffa485f"
    }
  ],
  "bytecode": "0x61033f610030600b82828239805160001a6073146000811461002057610022565bfe5b5030600052607381538281f3fe730000000000000000000000000000000000000000301460806040526004361061008f576000357c0100000000000000000000000000000000000000000000000000000000900463ffffffff168063048c294e146100945780631ffa485f146100de57806355cace6d1461013557806392ef4d7c1461017f5780639397018f146101d657806397170e1d1461022d575b600080fd5b61009c610277565b604051808273ffffffffffffffffffffffffffffffffffffffff1673ffffffffffffffffffffffffffffffffffffffff16815260200191505060405180910390f35b8180156100ea57600080fd5b506100f361028f565b604051808273ffffffffffffffffffffffffffffffffffffffff1673ffffffffffffffffffffffffffffffffffffffff16815260200191505060405180910390f35b61013d6102ab565b604051808273ffffffffffffffffffffffffffffffffffffffff1673ffffffffffffffffffffffffffffffffffffffff16815260200191505060405180910390f35b81801561018b57600080fd5b506101946102c3565b604051808273ffffffffffffffffffffffffffffffffffffffff1673ffffffffffffffffffffffffffffffffffffffff16815260200191505060405180910390f35b8180156101e257600080fd5b506101eb6102df565b604051808273ffffffffffffffffffffffffffffffffffffffff1673ffffffffffffffffffffffffffffffffffffffff16815260200191505060405180910390f35b6102356102fb565b604051808273ffffffffffffffffffffffffffffffffffffffff1673ffffffffffffffffffffffffffffffffffffffff16815260200191505060405180910390f35b732b482b0e0cd5c320a6c0a802f7d9cbe7e791400a81565b6000736a80d362426a7769dfe7dd452807d92f35622198905090565b739a3bf8a0d197f3beed1da33b5faacef842db4df081565b6000739a3bf8a0d197f3beed1da33b5faacef842db4df0905090565b6000732b482b0e0cd5c320a6c0a802f7d9cbe7e791400a905090565b736a80d362426a7769dfe7dd452807d92f356221988156fea165627a7a72305820dbc324e384fb61393f385892bb1ad8feb955ee341b96d98fd111d5cb328ff7b00029",
  "source": "pragma solidity >=0.4.0 <0.6.0;\n\nlibrary SharedStructs {\n     \n    address public constant peterson = 0x9A3BF8a0d197F3bEED1DA33b5FaAcef842Db4Df0;\n    address public constant WC_ADDR = 0x2B482b0e0cD5c320A6C0A802f7d9CbE7E791400A;\n    address public constant HC_ADDR = 0x6a80D362426a7769DFe7dd452807D92F35622198;\n    \n    function getPeterson() public returns (address) {\n        return peterson;\n    }\n    \n    function getWC_ADDR() public returns (address) {\n        return WC_ADDR;\n    }\n    \n    function getHC_ADDR() public returns (address) {\n        return HC_ADDR;\n    }\n    \n    struct Position {\n        uint longitude;\n        uint latitude;\n    }  \n    \n    // time is a UTC timestamp\n    struct HarvestData {\n        Position position;\n        string time; \n        uint volume;\n        bool bio;    \n    }\n    \n    struct Account {\n        uint id;\n        address addr;\n    }\n    \n    struct Field {\n        uint id;\n        Position northEast;\n        Position southWest;\n    }\n    \n    struct CropData {\n        uint fieldID;\n        //uint warehouseID;\n        string harvestTime;\n        string packageTime;\n        bool bio;\n    }\n}",
  "sourcePath": "/MetaCoin/contracts/sharedlibs.sol",
  "compiler": {
    "name": "solc",
    "version": "0.5.0+commit.1d4f565a.Emscripten.clang"
  },
  "schemaVersion": "3.0.2",
  "updatedAt": "2019-02-14T17:42:57.321Z",
  "devdoc": {
    "methods": {}
  },
  "userdoc": {
    "methods": {}
  }
}