{
  "contractName": "TraderContract",
  "abi": [
    {
      "inputs": [
        {
          "name": "WC_ADDR",
          "type": "address"
        },
        {
          "name": "peterson",
          "type": "address"
        }
      ],
      "payable": false,
      "stateMutability": "nonpayable",
      "type": "constructor",
      "signature": "constructor"
    },
    {
      "anonymous": false,
      "inputs": [],
      "name": "invalidTruck",
      "type": "event",
      "signature": "0xea4350ac27d58b34d4a63f39e2a45923d38ad2fb2ec55ff900a598ae0242963e"
    },
    {
      "anonymous": false,
      "inputs": [],
      "name": "unidentifiedBags",
      "type": "event",
      "signature": "0xf8b306a1564ac64788c8c269c386b72ca6790c19e2f58c175657666c76445146"
    },
    {
      "constant": false,
      "inputs": [
        {
          "components": [
            {
              "name": "id",
              "type": "uint256"
            },
            {
              "name": "addr",
              "type": "address"
            }
          ],
          "name": "trader",
          "type": "tuple"
        }
      ],
      "name": "registerTrader",
      "outputs": [],
      "payable": true,
      "stateMutability": "payable",
      "type": "function",
      "signature": "0x87caebd9"
    },
    {
      "constant": false,
      "inputs": [
        {
          "name": "traderID",
          "type": "uint256"
        }
      ],
      "name": "deRegisterTrader",
      "outputs": [],
      "payable": true,
      "stateMutability": "payable",
      "type": "function",
      "signature": "0x4cdbc653"
    },
    {
      "constant": false,
      "inputs": [],
      "name": "reportInvalidTruck",
      "outputs": [],
      "payable": true,
      "stateMutability": "payable",
      "type": "function",
      "signature": "0x0e59eda3"
    },
    {
      "constant": false,
      "inputs": [
        {
          "name": "truckID",
          "type": "uint256"
        },
        {
          "name": "RFIDs",
          "type": "uint256[]"
        }
      ],
      "name": "verifyTruck",
      "outputs": [],
      "payable": true,
      "stateMutability": "payable",
      "type": "function",
      "signature": "0xab9ccd5c"
    }
  ],
  "bytecode": "0x608060405234801561001057600080fd5b50604051604080610a7f833981018060405261002f91908101906100cb565b81600260006101000a81548173ffffffffffffffffffffffffffffffffffffffff021916908373ffffffffffffffffffffffffffffffffffffffff160217905550806000806101000a81548173ffffffffffffffffffffffffffffffffffffffff021916908373ffffffffffffffffffffffffffffffffffffffff1602179055505050610139565b60006100c38251610127565b905092915050565b600080604083850312156100de57600080fd5b60006100ec858286016100b7565b92505060206100fd858286016100b7565b9150509250929050565b600073ffffffffffffffffffffffffffffffffffffffff82169050919050565b600061013282610107565b9050919050565b610937806101486000396000f3fe608060405260043610610062576000357c0100000000000000000000000000000000000000000000000000000000900463ffffffff1680630e59eda3146100675780634cdbc6531461007157806387caebd91461008d578063ab9ccd5c146100a9575b600080fd5b61006f6100c5565b005b61008b600480360361008691908101906107bb565b6101a6565b005b6100a760048036036100a29190810190610792565b61029d565b005b6100c360048036036100be91908101906107e4565b61037d565b005b600080905060008090505b600180549050811015610163576001818154811015156100ec57fe5b906000526020600020906002020160010160009054906101000a900473ffffffffffffffffffffffffffffffffffffffff1673ffffffffffffffffffffffffffffffffffffffff163373ffffffffffffffffffffffffffffffffffffffff16141561015657600191505b80806001019150506100d0565b506001151581151514151561017757600080fd5b7fea4350ac27d58b34d4a63f39e2a45923d38ad2fb2ec55ff900a598ae0242963e60405160405180910390a150565b6000809054906101000a900473ffffffffffffffffffffffffffffffffffffffff1673ffffffffffffffffffffffffffffffffffffffff163373ffffffffffffffffffffffffffffffffffffffff1614151561020157600080fd5b60008090505b600180549050811015610299578160018281548110151561022457fe5b906000526020600020906002020160000154141561028c5760018181548110151561024b57fe5b90600052602060002090600202016000808201600090556001820160006101000a81549073ffffffffffffffffffffffffffffffffffffffff021916905550505b8080600101915050610207565b5050565b6000809054906101000a900473ffffffffffffffffffffffffffffffffffffffff1673ffffffffffffffffffffffffffffffffffffffff163373ffffffffffffffffffffffffffffffffffffffff161415156102f857600080fd5b600181908060018154018082558091505090600182039060005260206000209060020201600090919290919091506000820151816000015560208201518160010160006101000a81548173ffffffffffffffffffffffffffffffffffffffff021916908373ffffffffffffffffffffffffffffffffffffffff16021790555050505050565b600080905060008090505b60018054905081101561041b576001818154811015156103a457fe5b906000526020600020906002020160010160009054906101000a900473ffffffffffffffffffffffffffffffffffffffff1673ffffffffffffffffffffffffffffffffffffffff163373ffffffffffffffffffffffffffffffffffffffff16141561040e57600191505b8080600101915050610388565b506001151581151514151561042f57600080fd5b6060600260009054906101000a900473ffffffffffffffffffffffffffffffffffffffff1673ffffffffffffffffffffffffffffffffffffffff1663742fd595856040518263ffffffff167c01000000000000000000000000000000000000000000000000000000000281526004016104a89190610847565b60006040518083038186803b1580156104c057600080fd5b505afa1580156104d4573d6000803e3d6000fd5b505050506040513d6000823e3d601f19601f820116820180604052506104fd9190810190610751565b9050600080905060008090505b84518110156105805760008090505b835181101561057257838181518110151561053057fe5b90602001906020020151868381518110151561054857fe5b906020019060200201511415610565578280600101935050610572565b8080600101915050610519565b50808060010191505061050a565b508082511415156105b8577ff8b306a1564ac64788c8c269c386b72ca6790c19e2f58c175657666c7644514660405160405180910390a15b5050505050565b60006105cb82356108e1565b905092915050565b600082601f83011215156105e657600080fd5b81356105f96105f48261088f565b610862565b9150818183526020840193506020810190508385602084028201111561061e57600080fd5b60005b8381101561064e57816106348882610729565b845260208401935060208301925050600181019050610621565b5050505092915050565b600082601f830112151561066b57600080fd5b815161067e6106798261088f565b610862565b915081818352602084019350602081019050838560208402820111156106a357600080fd5b60005b838110156106d357816106b9888261073d565b8452602084019350602083019250506001810190506106a6565b5050505092915050565b6000604082840312156106ef57600080fd5b6106f96040610862565b9050600061070984828501610729565b600083015250602061071d848285016105bf565b60208301525092915050565b600061073582356108f3565b905092915050565b600061074982516108f3565b905092915050565b60006020828403121561076357600080fd5b600082015167ffffffffffffffff81111561077d57600080fd5b61078984828501610658565b91505092915050565b6000604082840312156107a457600080fd5b60006107b2848285016106dd565b91505092915050565b6000602082840312156107cd57600080fd5b60006107db84828501610729565b91505092915050565b600080604083850312156107f757600080fd5b600061080585828601610729565b925050602083013567ffffffffffffffff81111561082257600080fd5b61082e858286016105d3565b9150509250929050565b610841816108d7565b82525050565b600060208201905061085c6000830184610838565b92915050565b6000604051905081810181811067ffffffffffffffff8211171561088557600080fd5b8060405250919050565b600067ffffffffffffffff8211156108a657600080fd5b602082029050602081019050919050565b600073ffffffffffffffffffffffffffffffffffffffff82169050919050565b6000819050919050565b60006108ec826108b7565b9050919050565b600081905091905056fea265627a7a72305820e62f42bfbbb4f50c9643611dde3ece876b4f2856926c9a39ff10acbef89e3b5f6c6578706572696d656e74616cf50037",
  "source": "pragma solidity >=0.4.0 <0.6.0;\nimport  \"./warehouse.sol\";\nimport {SharedStructs as lib} from \"./sharedlibs.sol\";\npragma experimental ABIEncoderV2;\n\ncontract TraderContract {\n\n    address petersonEOA;\n    modifier onlyPeterson() {\n        require(msg.sender==petersonEOA);\n        _;\n    }\n\n    lib.Account[] traders;\n\n    modifier onlyTrader() {\n        bool isTrader = false;\n        for(uint i = 0; i<traders.length; i++) {\n            if (msg.sender == traders[i].addr)\n                isTrader = true;\n        }\n        require(isTrader==true);\n\n        _;\n    }\n\n    WarehouseContract wc;\n    constructor(address WC_ADDR, address peterson) public {\n        wc = WarehouseContract(WC_ADDR);\n        petersonEOA = peterson;\n    }\n\n    /**************************************  E V E N T S  *******************************************/\n\n    event invalidTruck();\n    event unidentifiedBags();\n\n    /************************************** R E G I S T E R ***********************************/\n\n    function registerTrader(lib.Account memory trader) public payable onlyPeterson {\n        traders.push(trader);\n    }\n\n    function deRegisterTrader(uint traderID) public payable onlyPeterson {\n        for (uint i = 0; i<traders.length; i++)\n        {\n            if (traders[i].id == traderID) {\n                delete traders[i];\n            }\n        }\n    }\n\n    /****************************** E N T R Y    P O I N T **************************************/\n\n    // if a truck is detected which is not registered the camera triggers this function\n    function reportInvalidTruck() public payable onlyTrader {\n        emit invalidTruck();\n    }\n\n    // argument \"RFIDs\" are bags on truck\n    function verifyTruck(uint truckID, uint[] memory RFIDs) public payable onlyTrader {\n        uint[] memory bags = wc.getTruckBags(truckID);\n        uint count = 0;\n        for (uint i = 0; i<RFIDs.length; i++){\n            for (uint j = 0; j<bags.length; j++){\n                if (RFIDs[i] == bags[j]){\n                    count++;\n                    break;\n                }\n            }\n        }\n        if (bags.length != count) {\n            emit unidentifiedBags();\n        }\n    }\n\n    /****************************** P R O C E S S I N G **************************************/\n\n    // use warehouse functions\n\n    /****************************** E X I T    P O I N T **************************************/\n\n}\n",
  "sourcePath": "/MetaCoin/contracts/trader.sol",
  "compiler": {
    "name": "solc",
    "version": "0.5.0+commit.1d4f565a.Emscripten.clang"
  },
  "schemaVersion": "3.0.2",
  "updatedAt": "2019-02-14T17:42:57.325Z",
  "devdoc": {
    "methods": {}
  },
  "userdoc": {
    "methods": {
      "registerTrader((uint256,address))": {
        "notice": "************************************ R E G I S T E R **********************************"
      },
      "reportInvalidTruck()": {
        "notice": "**************************** E N T R Y    P O I N T *************************************"
      }
    }
  }
}