{
  "contractName": "WarehouseContract",
  "abi": [
    {
      "inputs": [
        {
          "name": "HC_ADDR",
          "type": "address"
        },
        {
          "name": "peterson",
          "type": "address"
        }
      ],
      "payable": false,
      "stateMutability": "nonpayable",
      "type": "constructor",
      "signature": "constructor"
    },
    {
      "anonymous": false,
      "inputs": [],
      "name": "invalidTruck",
      "type": "event",
      "signature": "0xea4350ac27d58b34d4a63f39e2a45923d38ad2fb2ec55ff900a598ae0242963e"
    },
    {
      "anonymous": false,
      "inputs": [],
      "name": "invalidVolume",
      "type": "event",
      "signature": "0xcaafa7725fd63c1961b355ce51770e653027c4e9c114059385aa37f657f5bb04"
    },
    {
      "anonymous": false,
      "inputs": [],
      "name": "unidentifiedBags",
      "type": "event",
      "signature": "0xf8b306a1564ac64788c8c269c386b72ca6790c19e2f58c175657666c76445146"
    },
    {
      "constant": false,
      "inputs": [
        {
          "components": [
            {
              "name": "id",
              "type": "uint256"
            },
            {
              "name": "addr",
              "type": "address"
            }
          ],
          "name": "warehouse",
          "type": "tuple"
        }
      ],
      "name": "registerWarehouse",
      "outputs": [],
      "payable": true,
      "stateMutability": "payable",
      "type": "function",
      "signature": "0x1e24a966"
    },
    {
      "constant": false,
      "inputs": [
        {
          "name": "warehouseID",
          "type": "uint256"
        },
        {
          "name": "fieldIDs",
          "type": "uint256[]"
        }
      ],
      "name": "registerFieldsToWarehouse",
      "outputs": [],
      "payable": true,
      "stateMutability": "payable",
      "type": "function",
      "signature": "0x5f0b6071"
    },
    {
      "constant": false,
      "inputs": [],
      "name": "reportInvalidTruck",
      "outputs": [],
      "payable": true,
      "stateMutability": "payable",
      "type": "function",
      "signature": "0x0e59eda3"
    },
    {
      "constant": false,
      "inputs": [
        {
          "name": "warehouseID",
          "type": "uint256"
        },
        {
          "name": "truckID",
          "type": "uint256"
        }
      ],
      "name": "verifyTruck",
      "outputs": [],
      "payable": true,
      "stateMutability": "payable",
      "type": "function",
      "signature": "0x19325709"
    },
    {
      "constant": false,
      "inputs": [
        {
          "name": "unloadedVol",
          "type": "uint256"
        },
        {
          "name": "truckID",
          "type": "uint256"
        }
      ],
      "name": "verifyVolume",
      "outputs": [],
      "payable": true,
      "stateMutability": "payable",
      "type": "function",
      "signature": "0xe3509037"
    },
    {
      "constant": false,
      "inputs": [
        {
          "name": "warehouseID",
          "type": "uint256"
        },
        {
          "name": "RFID",
          "type": "uint256"
        },
        {
          "components": [
            {
              "name": "fieldID",
              "type": "uint256"
            },
            {
              "name": "harvestTime",
              "type": "string"
            },
            {
              "name": "packageTime",
              "type": "string"
            },
            {
              "name": "bio",
              "type": "bool"
            }
          ],
          "name": "data",
          "type": "tuple"
        }
      ],
      "name": "assignRFID",
      "outputs": [],
      "payable": true,
      "stateMutability": "payable",
      "type": "function",
      "signature": "0x8092d406"
    },
    {
      "constant": false,
      "inputs": [
        {
          "name": "warehouseID",
          "type": "uint256"
        },
        {
          "name": "truckID",
          "type": "uint256"
        },
        {
          "name": "bagIDs",
          "type": "uint256[]"
        }
      ],
      "name": "loadBagsOnTruck",
      "outputs": [],
      "payable": true,
      "stateMutability": "payable",
      "type": "function",
      "signature": "0x8a8f8676"
    },
    {
      "constant": true,
      "inputs": [
        {
          "name": "truckID",
          "type": "uint256"
        }
      ],
      "name": "getTruckBags",
      "outputs": [
        {
          "name": "",
          "type": "uint256[]"
        }
      ],
      "payable": false,
      "stateMutability": "view",
      "type": "function",
      "signature": "0x742fd595"
    }
  ],
  "bytecode": "0x60806040523480156200001157600080fd5b50604051604080620017c78339810180604052620000339190810190620000d2565b81600160006101000a81548173ffffffffffffffffffffffffffffffffffffffff021916908373ffffffffffffffffffffffffffffffffffffffff160217905550806000806101000a81548173ffffffffffffffffffffffffffffffffffffffff021916908373ffffffffffffffffffffffffffffffffffffffff160217905550505062000147565b6000620000ca825162000133565b905092915050565b60008060408385031215620000e657600080fd5b6000620000f685828601620000bc565b92505060206200010985828601620000bc565b9150509250929050565b600073ffffffffffffffffffffffffffffffffffffffff82169050919050565b6000620001408262000113565b9050919050565b61167080620001576000396000f3fe60806040526004361061008e576000357c0100000000000000000000000000000000000000000000000000000000900463ffffffff1680630e59eda314610093578063193257091461009d5780631e24a966146100b95780635f0b6071146100d5578063742fd595146100f15780638092d4061461012e5780638a8f86761461014a578063e350903714610166575b600080fd5b61009b610182565b005b6100b760048036036100b29190810190611301565b610263565b005b6100d360048036036100ce91908101906111f1565b61059a565b005b6100ef60048036036100ea91908101906112ad565b61067a565b005b3480156100fd57600080fd5b506101186004803603610113919081019061125b565b610701565b60405161012591906114a4565b60405180910390f35b610148600480360361014391908101906113a4565b61076c565b005b610164600480360361015f919081019061133d565b6108dc565b005b610180600480360361017b9190810190611301565b610ae1565b005b600080905060008090505b600280549050811015610220576002818154811015156101a957fe5b906000526020600020906002020160010160009054906101000a900473ffffffffffffffffffffffffffffffffffffffff1673ffffffffffffffffffffffffffffffffffffffff163373ffffffffffffffffffffffffffffffffffffffff16141561021357600191505b808060010191505061018d565b506001151581151514151561023457600080fd5b7fea4350ac27d58b34d4a63f39e2a45923d38ad2fb2ec55ff900a598ae0242963e60405160405180910390a150565b600080905060008090505b6002805490508110156103015760028181548110151561028a57fe5b906000526020600020906002020160010160009054906101000a900473ffffffffffffffffffffffffffffffffffffffff1673ffffffffffffffffffffffffffffffffffffffff163373ffffffffffffffffffffffffffffffffffffffff1614156102f457600191505b808060010191505061026e565b506001151581151514151561031557600080fd5b61031d610d57565b600160009054906101000a900473ffffffffffffffffffffffffffffffffffffffff1673ffffffffffffffffffffffffffffffffffffffff1663d36e08f1846040518263ffffffff167c010000000000000000000000000000000000000000000000000000000002815260040161039491906114e1565b60006040518083038186803b1580156103ac57600080fd5b505afa1580156103c0573d6000803e3d6000fd5b505050506040513d6000823e3d601f19601f820116820180604052506103e9919081019061121a565b90506000600160009054906101000a900473ffffffffffffffffffffffffffffffffffffffff1673ffffffffffffffffffffffffffffffffffffffff1663cf6a96ef83600001516040518263ffffffff167c010000000000000000000000000000000000000000000000000000000002815260040161046891906114c6565b60206040518083038186803b15801561048057600080fd5b505afa158015610494573d6000803e3d6000fd5b505050506040513d601f19601f820116820180604052506104b89190810190611284565b905060606003600087815260200190815260200160002080548060200260200160405190810160405280929190818152602001828054801561051957602002820191906000526020600020905b815481526020019060010190808311610505575b5050505050905060008090505b815181101561056457818181518110151561053d57fe5b906020019060200201518314156105575750505050610595565b8080600101915050610526565b507fea4350ac27d58b34d4a63f39e2a45923d38ad2fb2ec55ff900a598ae0242963e60405160405180910390a15050505b505050565b6000809054906101000a900473ffffffffffffffffffffffffffffffffffffffff1673ffffffffffffffffffffffffffffffffffffffff163373ffffffffffffffffffffffffffffffffffffffff161415156105f557600080fd5b600281908060018154018082558091505090600182039060005260206000209060020201600090919290919091506000820151816000015560208201518160010160006101000a81548173ffffffffffffffffffffffffffffffffffffffff021916908373ffffffffffffffffffffffffffffffffffffffff16021790555050505050565b6000809054906101000a900473ffffffffffffffffffffffffffffffffffffffff1673ffffffffffffffffffffffffffffffffffffffff163373ffffffffffffffffffffffffffffffffffffffff161415156106d557600080fd5b806003600084815260200190815260200160002090805190602001906106fc929190610d88565b505050565b60606006600083815260200190815260200160002080548060200260200160405190810160405280929190818152602001828054801561076057602002820191906000526020600020905b81548152602001906001019080831161074c575b50505050509050919050565b600080905060008090505b60028054905081101561080a5760028181548110151561079357fe5b906000526020600020906002020160010160009054906101000a900473ffffffffffffffffffffffffffffffffffffffff1673ffffffffffffffffffffffffffffffffffffffff163373ffffffffffffffffffffffffffffffffffffffff1614156107fd57600191505b8080600101915050610777565b506001151581151514151561081e57600080fd5b8160046000858152602001908152602001600020600082015181600001556020820151816001019080519060200190610858929190610dd5565b506040820151816002019080519060200190610875929190610dd5565b5060608201518160030160006101000a81548160ff0219169083151502179055509050506005600085815260200190815260200160002083908060018154018082558091505090600182039060005260206000200160009091929091909150555050505050565b600080905060008090505b60028054905081101561097a5760028181548110151561090357fe5b906000526020600020906002020160010160009054906101000a900473ffffffffffffffffffffffffffffffffffffffff1673ffffffffffffffffffffffffffffffffffffffff163373ffffffffffffffffffffffffffffffffffffffff16141561096d57600191505b80806001019150506108e7565b506001151581151514151561098e57600080fd5b6060600560008681526020019081526020016000208054806020026020016040519081016040528092919081815260200182805480156109ed57602002820191906000526020600020905b8154815260200190600101908083116109d9575b50505050509050600080905060008090505b8451811015610a755760008090505b8351811015610a67578582815181101515610a2557fe5b906020019060200201518482815181101515610a3d57fe5b906020019060200201511415610a5a578280600101935050610a67565b8080600101915050610a0e565b5080806001019150506109ff565b508351811415610aac5783600660008781526020019081526020016000209080519060200190610aa6929190610d88565b50610ad9565b7ff8b306a1564ac64788c8c269c386b72ca6790c19e2f58c175657666c7644514660405160405180910390a15b505050505050565b600080905060008090505b600280549050811015610b7f57600281815481101515610b0857fe5b906000526020600020906002020160010160009054906101000a900473ffffffffffffffffffffffffffffffffffffffff1673ffffffffffffffffffffffffffffffffffffffff163373ffffffffffffffffffffffffffffffffffffffff161415610b7257600191505b8080600101915050610aec565b5060011515811515141515610b9357600080fd5b610b9b610d57565b600160009054906101000a900473ffffffffffffffffffffffffffffffffffffffff1673ffffffffffffffffffffffffffffffffffffffff1663d36e08f1846040518263ffffffff167c0100000000000000000000000000000000000000000000000000000000028152600401610c1291906114e1565b60006040518083038186803b158015610c2a57600080fd5b505afa158015610c3e573d6000803e3d6000fd5b505050506040513d6000823e3d601f19601f82011682018060405250610c67919081019061121a565b9050806040015184111515610d2457600160009054906101000a900473ffffffffffffffffffffffffffffffffffffffff1673ffffffffffffffffffffffffffffffffffffffff16638092eaef846040518263ffffffff167c0100000000000000000000000000000000000000000000000000000000028152600401610ced91906114e1565b600060405180830381600087803b158015610d0757600080fd5b505af1158015610d1b573d6000803e3d6000fd5b50505050610d51565b7fcaafa7725fd63c1961b355ce51770e653027c4e9c114059385aa37f657f5bb0460405160405180910390a15b50505050565b60a060405190810160405280610d6b610e55565b815260200160608152602001600081526020016000151581525090565b828054828255906000526020600020908101928215610dc4579160200282015b82811115610dc3578251825591602001919060010190610da8565b5b509050610dd19190610e6f565b5090565b828054600181600116156101000203166002900490600052602060002090601f016020900481019282601f10610e1657805160ff1916838001178555610e44565b82800160010185558215610e44579182015b82811115610e43578251825591602001919060010190610e28565b5b509050610e519190610e6f565b5090565b604080519081016040528060008152602001600081525090565b610e9191905b80821115610e8d576000816000905550600101610e75565b5090565b90565b6000610ea082356115cc565b905092915050565b600082601f8301121515610ebb57600080fd5b8135610ece610ec982611529565b6114fc565b91508181835260208401935060208101905083856020840282011115610ef357600080fd5b60005b83811015610f235781610f0988826111c9565b845260208401935060208301925050600181019050610ef6565b5050505092915050565b6000610f3982356115de565b905092915050565b6000610f4d82516115de565b905092915050565b600082601f8301121515610f6857600080fd5b8135610f7b610f7682611551565b6114fc565b91508082526020830160208301858383011115610f9757600080fd5b610fa28382846115f4565b50505092915050565b600082601f8301121515610fbe57600080fd5b8151610fd1610fcc82611551565b6114fc565b91508082526020830160208301858383011115610fed57600080fd5b610ff8838284611603565b50505092915050565b60006040828403121561101357600080fd5b61101d60406114fc565b9050600061102d848285016111c9565b600083015250602061104184828501610e94565b60208301525092915050565b60006080828403121561105f57600080fd5b61106960806114fc565b90506000611079848285016111c9565b600083015250602082013567ffffffffffffffff81111561109957600080fd5b6110a584828501610f55565b602083015250604082013567ffffffffffffffff8111156110c557600080fd5b6110d184828501610f55565b60408301525060606110e584828501610f2d565b60608301525092915050565b600060a0828403121561110357600080fd5b61110d60806114fc565b9050600061111d8482850161117d565b600083015250604082015167ffffffffffffffff81111561113d57600080fd5b61114984828501610fab565b602083015250606061115d848285016111dd565b604083015250608061117184828501610f41565b60608301525092915050565b60006040828403121561118f57600080fd5b61119960406114fc565b905060006111a9848285016111dd565b60008301525060206111bd848285016111dd565b60208301525092915050565b60006111d582356115ea565b905092915050565b60006111e982516115ea565b905092915050565b60006040828403121561120357600080fd5b600061121184828501611001565b91505092915050565b60006020828403121561122c57600080fd5b600082015167ffffffffffffffff81111561124657600080fd5b611252848285016110f1565b91505092915050565b60006020828403121561126d57600080fd5b600061127b848285016111c9565b91505092915050565b60006020828403121561129657600080fd5b60006112a4848285016111dd565b91505092915050565b600080604083850312156112c057600080fd5b60006112ce858286016111c9565b925050602083013567ffffffffffffffff8111156112eb57600080fd5b6112f785828601610ea8565b9150509250929050565b6000806040838503121561131457600080fd5b6000611322858286016111c9565b9250506020611333858286016111c9565b9150509250929050565b60008060006060848603121561135257600080fd5b6000611360868287016111c9565b9350506020611371868287016111c9565b925050604084013567ffffffffffffffff81111561138e57600080fd5b61139a86828701610ea8565b9150509250925092565b6000806000606084860312156113b957600080fd5b60006113c7868287016111c9565b93505060206113d8868287016111c9565b925050604084013567ffffffffffffffff8111156113f557600080fd5b6114018682870161104d565b9150509250925092565b60006114168261158a565b8084526020840193506114288361157d565b60005b8281101561145a5761143e868351611495565b61144782611595565b915060208601955060018101905061142b565b50849250505092915050565b60408201600082015161147c6000850182611495565b50602082015161148f6020850182611495565b50505050565b61149e816115c2565b82525050565b600060208201905081810360008301526114be818461140b565b905092915050565b60006040820190506114db6000830184611466565b92915050565b60006020820190506114f66000830184611495565b92915050565b6000604051905081810181811067ffffffffffffffff8211171561151f57600080fd5b8060405250919050565b600067ffffffffffffffff82111561154057600080fd5b602082029050602081019050919050565b600067ffffffffffffffff82111561156857600080fd5b601f19601f8301169050602081019050919050565b6000602082019050919050565b600081519050919050565b6000602082019050919050565b600073ffffffffffffffffffffffffffffffffffffffff82169050919050565b6000819050919050565b60006115d7826115a2565b9050919050565b60008115159050919050565b6000819050919050565b82818337600083830152505050565b60005b83811015611621578082015181840152602081019050611606565b83811115611630576000848401525b5050505056fea265627a7a723058205728dd282ce81d858772524706523ccbb00746d16127c6694a0214beb1fe10036c6578706572696d656e74616cf50037",
  "source": "pragma solidity >=0.4.0 <0.6.0;\nimport {HarvestContract} from \"./harvest.sol\";\nimport {SharedStructs as lib} from \"./sharedlibs.sol\";\npragma experimental ABIEncoderV2;\n\ncontract WarehouseContract {\n\n    address petersonEOA;\n    modifier onlyPeterson() {\n        require(msg.sender==petersonEOA);\n        _;\n    }\n\n    modifier onlyWarehouse() {\n        bool isWarehouse = false;\n        for(uint i = 0; i<warehouses.length; i++) {\n            if (msg.sender == warehouses[i].addr)\n                isWarehouse = true;\n        }\n        require(isWarehouse==true);\n\n        _;\n    }\n\n    HarvestContract hc;\n    constructor(address HC_ADDR, address peterson) public {\n        hc = HarvestContract(HC_ADDR);\n        petersonEOA = peterson;\n    }\n\n    /**************************************  E V E N T S  *******************************************/\n\n    event invalidTruck();\n    event invalidVolume();\n    event unidentifiedBags();\n\n    /**************************************  D A T A *******************************************/\n    lib.Account[] warehouses;\n    mapping(uint => uint[]) fieldWarehouseMap;\n    mapping(uint => lib.CropData) RFIDCropMap;\n    mapping(uint => uint[]) warehouseRFIDMap;\n    mapping(uint => uint[]) truckBagsMap;\n\n    /************************************** R E G I S T E R ***********************************/\n\n    function registerWarehouse(lib.Account memory warehouse) public payable onlyPeterson {\n        warehouses.push(warehouse);\n    }\n\n    /*function deRegisterWarehouse(uint warehouseID) public payable onlyPeterson {\n        for (uint i = 0; i<warehouses.length; i++)\n        {\n            if (warehouses[i].id == warehouseID) {\n                delete warehouses[i];\n            }\n        }\n    }*/\n\n    function registerFieldsToWarehouse(uint warehouseID, uint[] memory fieldIDs) public payable onlyPeterson {\n        fieldWarehouseMap[warehouseID] = fieldIDs;\n    }\n\n    /*function deRegisterFieldFromWarehouse(uint warehouseID, uint fieldID) public payable onlyPeterson {\n        uint[] memory fields =  fieldWarehouseMap[warehouseID];\n        for (uint i = 0; i<fields.length; i++)\n        {\n            if (fields[i] == fieldID) {\n                delete fields[i];\n            }\n        }\n    }*/\n\n    /****************************** E N T R Y    P O I N T **************************************/\n\n    // if a truck is detected which is not registered the camera triggers this function\n    function reportInvalidTruck() public payable onlyWarehouse() {\n        emit invalidTruck();\n    }\n\n    // verifies if truck was loaded in a field corresponding to the warehouse\n    function verifyTruck(uint warehouseID, uint truckID) public payable onlyWarehouse() {\n\n        lib.HarvestData memory truck = hc.getLoadedTruckData(truckID);\n        uint fieldID = hc.positionToField(truck.position);\n        uint[] memory warehouseFields = fieldWarehouseMap[warehouseID];\n        for (uint i = 0; i<warehouseFields.length; i++) {\n            if (fieldID == warehouseFields[i])\n                return;\n        }\n        emit invalidTruck();\n    }\n\n    // after soybean unloading in warehouse is completed we verify that volume doesn't\n    // exceed original loaded volume\n    function verifyVolume(uint unloadedVol, uint truckID) public payable onlyWarehouse() {\n        lib.HarvestData memory truck = hc.getLoadedTruckData(truckID);\n        if (unloadedVol <= truck.volume) {\n            hc.unloadTruck(truckID);\n        }\n        else\n            emit invalidVolume();\n    }\n\n    /****************************** P R O C E S S I N G **************************************/\n\n    function assignRFID(uint warehouseID, uint RFID, lib.CropData memory data) public payable onlyWarehouse() {\n        RFIDCropMap[RFID] = data;\n        warehouseRFIDMap[warehouseID].push(RFID);\n    }\n\n    /****************************** E X I T    P O I N T **************************************/\n\n    // only bags which have RFIDs can be loaded on trucks (and then compared by trader)\n    function loadBagsOnTruck(uint warehouseID, uint truckID, uint[] memory bagIDs) public payable onlyWarehouse(){\n        uint[] memory RFIDs = warehouseRFIDMap[warehouseID];\n        uint matches = 0;\n        for (uint i = 0; i<bagIDs.length; i++)\n        {\n            for (uint j = 0; j<RFIDs.length; j++) {\n                if (RFIDs[j] == bagIDs[i])\n                {\n                    matches++;\n                    break;\n                }\n            }\n        }\n        if (matches == bagIDs.length) {\n            truckBagsMap[truckID] = bagIDs;\n        }\n        else\n            emit unidentifiedBags();\n    }\n\n    // called by trader to retrieve true loaded bags\n    function getTruckBags(uint truckID) public view /*onlyTrader()*/ returns (uint[] memory) {\n        return truckBagsMap[truckID];\n    }\n\n}\n",
  "sourcePath": "/MetaCoin/contracts/warehouse.sol",
  "compiler": {
    "name": "solc",
    "version": "0.5.0+commit.1d4f565a.Emscripten.clang"
  },
  "schemaVersion": "3.0.2",
  "updatedAt": "2019-02-14T17:42:57.333Z",
  "devdoc": {
    "methods": {}
  },
  "userdoc": {
    "methods": {
      "assignRFID(uint256,uint256,(uint256,string,string,bool))": {
        "notice": "**************************** P R O C E S S I N G *************************************"
      },
      "loadBagsOnTruck(uint256,uint256,uint256[])": {
        "notice": "**************************** E X I T    P O I N T *************************************"
      },
      "registerWarehouse((uint256,address))": {
        "notice": "************************************ R E G I S T E R **********************************"
      },
      "reportInvalidTruck()": {
        "notice": "**************************** E N T R Y    P O I N T *************************************"
      }
    }
  }
}